:020000040800F2
:10000000B0300020D5000008DD9700081578000802
:1000100000000000000000000000000000000000E0
:100020000000000000000000000000005FB40008B5
:100030000000000000000000F19E000841B500082B
:10004000E7000008E7000008E7000008E7000008F4
:10005000E7000008E7000008E7000008E7000008E4
:10006000E7000008E7000008691E0008E700000834
:10007000E7000008E7000008E7000008E7000008C4
:10008000E7000008E700000815B60008E7000008D0
:10009000E7000008E7000008E7000008E7000008A4
:1000A000E7000008E7000008E7000008E700000894
:1000B000E7000008E7000008E700000829F300084F
:1000C0000348854601F0F6F800480047D90B0108BF
:1000D000B03000200448804704480047FEE7FEE7B0
:1000E000FEE7FEE7FEE7FEE711B60008C1000008E4
:1000F000F0B51FB40646002082B0054640240191A9
:1001000000901BE0019922460F46304600F038F877
:10011000049A059B801A994110D31046194622462D
:1001200000F07EFB361A8F41019722460120002104
:10013000009F00F075FB38184D4100902046641E6A
:100140000028DFDC019B00982946324607B0F0BD4D
:1001500030B5434351435C18010C130C0D465D430D
:100160002C1980B292B20546554351430A0C09043A
:100170004D1962415843010C00044019514130BDF2
:1001800010B5202A04DB0846203AD040002110BDDB
:100190000B46D340D0402024A21A91400843194670
:1001A00010BD03460B439B0703D009E008C9121F8B
:1001B00008C0042AFAD203E00B780370401C491CE3
:1001C000521EF9D27047D2B201E00270401C491EA3
:1001D000FBD270470022F6E710B513460A460446E4
:1001E0001946FFF7F0FF204610BD421E5378521CFF
:1001F000002BFBD10B781370491C521C002BF9D13A
:100200007047421C0178401C0029FBD1801A7047BE
:1002100030B504460020034600E05B1C934203D245
:10022000E05CCD5C401BF8D030BD03460A7802701C
:10023000401C491C002AF9D11846704730B50546C4
:100240000020034600E05B1C934205D2EC5CC85CD6
:10025000201A01D1002CF6D130BD00000FB400B53A
:100260008DB009900B9010A900200091C0430A9016
:1002700000200C9006480690064807906A4609A898
:100280000F9900F06FFE0DB008BC04B018470000D5
:10029000850F0008A50F0008F8B502464A40D40FA4
:1002A00042004B0052085B089A4202D202460846BE
:1002B00011464A0023D0C30D4A00DDB2120EAD1A1A
:1002C000202D35DA49020126490AF6058A19002C43
:1002D00000D0524220214F1B1146B9402A4110182C
:1002E000C20D9A4221D0002C17D0012D08DCDA056E
:1002F000801AD20F8019D207DBB200F06DFEF8BD74
:10030000DA05801A012340001B06C01880185A42E3
:100310008018CA0F1043490007E04908C20711437B
:10032000DA05801A80194008801800F04DFEF8BDEB
:1003300061000122511A001BF7E70122D207514048
:10034000AAE70122D2075040A6E7024670B54A400C
:10035000D30FDB0740002DD04A002AD0010E140E27
:10036000000212020919400A520A8418E5010446E3
:100370005443000A120A2E045043A4194219200CB7
:10038000C543AA18120C0125AD03521C52191204C0
:100390007F39240400D0521C104301D44000491E70
:1003A000C2B20C06C0092018401C4008802A02D0A6
:1003B00003E0002070BD40084000002900DA002062
:1003C000184370BD70B502464A40D50F40004A0040
:1003D000ED0740085208002814D0002A12D0C40D9E
:1003E000D30D41020120C0055202490A520AE41A03
:1003F000091812187D34914201D3641C00E04900B1
:10040000002C01DA002070BD0023914201D3891A2B
:100410000343400849000028F7D100290AD091423F
:1004200002D10121C90705E0914201D2012101E079
:100430000121C943E005C018401900F0C5FD70BD99
:10044000F0B507460846584087B0C00F04904800F2
:100450000E46590040084908BC1A884105D2384662
:1004600031461E4617460B460246580040081043C8
:100470004CD0300D039040055900400D490D0590BA
:10048000401A0290402872DA18030121000B090576
:100490000843019004980092002805D00199524227
:1004A0000020884100920190029840210A1A019987
:1004B000009800F0B5F905460C466B4607CB00F0F6
:1004C000BFF9C0197141039A0E0D0023D71756408A
:1004D0001A467A40164344D0049A002A2DD0029A34
:1004E000012A039A15DC1205C01A9141012636052E
:1004F000001C7141D20F059ED20700930192029613
:100500002A46234600F0AEFD07B0F0BD384631461E
:10051000FAE71605224A0F46B218C01AB741012160
:100520000905001C4F4100187F41114618187941F8
:10053000E20F10436D19644113E0E2076D081543A3
:100540006408C2071443039A01261205C01A914198
:100550003605001C7141CE07400830434908C018D9
:1005600051412A46234600F070FDCDE7FFE704988D
:1005700001224000C117121A00238B410498314612
:10058000C417381AA141EEE730B40124E4076340F0
:1005900030BC55E730B40124E407614030BC4FE77C
:1005A0000000E0FFF0B51FB488B00B990998002453
:1005B00048400999C00F490049080991C0070B99A3
:1005C0000090490049080B9109990898A6460843EC
:1005D0001CD00B990A98084318D0099801244000B0
:1005E000420D4800410D099824050003000B2043EB
:1005F00009900B980003000B20430B9050181C49E6
:100600004018002201901446104605E000200146E3
:100610000DB0F0BD032801DA034600E003239C4639
:10062000C11A0AAE0AE05F0008ADED5B4F00F75B50
:100630007D430027AA187C41491C5B1E6145F2DD01
:10064000410004AB5A522104120C0A43240C401CF2
:100650000828DFDB01980290009970460191009014
:10066000059B049A0799069800F0FCFCD0E700006F
:100670000DFCFFFF0122D207002800DB101A002921
:1006800000DB511A814201D80120704700207047D9
:100690000122D207002800DB101A002900DB511AC2
:1006A000814201D201207047002070470122D20709
:1006B000002800DB101A002900DB511A814201D109
:1006C0000120704700207047C217C10F504010B57D
:1006D0004018CA079623002100F07EFC10BD10B51B
:1006E00000229623114600F077FC10BDC20F410096
:1006F00040020123400ADB05D207090EC0187F29FA
:1007000001DA00207047962903DC9623591AC84065
:1007100001E096398840002AF4D04042704700003A
:1007200070B5CD0F4A0009030123090B1B051943BE
:100730000B4BED070024520D9A4201DA002070BDE8
:10074000074B34339A4203DC9A1AFFF719FD02E093
:100750000449511888402C43F1D0404270BD00003C
:10076000FF030000CDFBFFFFC20FD207400040088F
:100770000BD0C10D0723DB01C91840020905400A4F
:100780001143C208400711437047002001467047DB
:1007900070B50446002903D000202022012310E078
:1007A000002801D00020C043C046C0460DE02546C9
:1007B000D5408D4205D30D469540641B1D4695409E
:1007C00040191546521E002DF1DC214670BD000077
:1007D00070B5002504462E46002911D0002C01DA00
:1007E00001254442002901DA012649422046FFF74B
:1007F000CFFFB54200D04042002D00D0494270BD2D
:10080000002C02DA0121C90702E0002C00DD0349B7
:100810000846C046C046214670BD0000FFFFFF7F6E
:1008200010B5202A04DB0146203A9140002010BD7B
:10083000914020239C1A0346E3401943904010BD89
:1008400010B5202A06DBCB170846203A1041C11705
:100850000B4306E00B461341D0402024A21A9140DE
:100860000843194610BDFFB50025ED4385B00020B3
:10087000009001909F685E681C46A1696D1C0698F7
:1008800088470290216A88470028F6D10298401CC8
:100890000CD0032040028643002F19DD700614D5CA
:1008A00002982B2809D02D280FD103E00020C04347
:1008B00009B0F0BD012080020643A1696D1C0698B5
:1008C00088477F1E0290002F02DD0298302803D057
:1008D0000798002828D024E0012040020643A1699F
:1008E0006D1C7F1E069888470290002F03DD782834
:1008F00005D0582803D00798002810D011E0079899
:10090000002801D010280CD1012040028643A169A3
:100910006D1C7F1E069888470290102000E008207A
:100920000790C017039016E00A20F9E70120400263
:1009300006437F1E039B079A01990098FFF708FC66
:10094000029AD3178018594101910090A1696D1C3A
:10095000069888470290002F06DD0799029800F05C
:10096000C8FC02900028E1DAE16906988847B005E2
:1009700002D40120C0439BE7F00710D1700610D5C8
:10098000700505D50098019B002241429A4101E083
:10099000019A00992068031D2360006806C028465C
:1009A00086E72068011D21600068019A0099F5E73B
:1009B000FFB50027FF4383B000205C6801909E686C
:1009C0001D46A9697F1C049888470090296A8847BA
:1009D0000028F6D10098401C0CD00320400284432C
:1009E000002E19DD600614D500982B2809D02D287B
:1009F0000FD103E00020C04307B0F0BD012080020A
:100A00000443A9697F1C04988847761E0090002E35
:100A100002DD0098302803D00598002825D035E065
:100A2000012040020443A969761E7F1C0498884770
:100A30000090002E03DD782805D0582803D00598B3
:100A4000002810D022E00598002801D010281DD1E0
:100A5000012040028443A969761E7F1C04988847C0
:100A60000090102002E0082000E00A2005900DE030
:100A7000012149020C43059A0199761E5143081839
:100A80000190A9697F1C049888470090002E05DD1D
:100A90000599009800F02DFC0028E9DAE96904982E
:100AA0008847A00502D40120C043A5E7E00722D172
:100AB000600611D56005019800D5404229680A1DDD
:100AC0002A600968220501D5087014E0220701D5C3
:100AD000088010E008600EE02868011D29600068A9
:100AE000210502D50199017005E02107019901D581
:100AF000018000E0016038467EE7FFB5002083B04A
:100B000000905068019091691446002697680498F7
:100B1000884705460C990698084305D009E0A16965
:100B2000761C049888470546216A2846884700288D
:100B3000F5D1681C03D00198C00704D017E000204D
:100B4000C04307B0F0BD2068011D2160006800901F
:100B50000DE00198C00704D1009805700098401C72
:100B60000090A169761C7F1E049888470546002FD7
:100B70001CDD681C1AD0069800280FD0E817C00E9C
:100B8000401941118A0006994009511840012A1A5A
:100B90000968012090400142DBD107E00C98002851
:100BA000D7D1216A284688470028D2D0E169049825
:100BB00088470C98002807D1002E05DD0198C00752
:100BC00002D1009800210170A068B84204DD0C98A1
:100BD000002804D0002F02D00120C043B1E73046E6
:100BE000AFE70000FFB5087889B01546FF2805D0AB
:100BF000491C2D2804D00022002407E000240BE02B
:100C00000122F9E70A235C430419491C0878FF28EC
:100C1000F8D1002A00D06442002004902A780146CE
:100C20002D2A01D02B2A0FD16D1C2D2A02D0002293
:100C3000049209E00122FBE700260A2233466D1CDC
:100C4000FFF786FA381871412F78FF2FF4D10C9AEC
:100C5000A218069202460A4304D0FF23069A913353
:100C6000DA4205DA002109980A4606C00DB0F0BD47
:100C70000024B74AB54D2646079200F037FD029092
:100C800006980391002801DA474200E0074639053B
:100C90000020AF4A001C51410191009012E0F8077A
:100CA00007D022462B4630460799FFF77BFC0646C5
:100CB000079122462B4610461946FFF773FC04465F
:100CC0000D467F10002FEAD10698019B0028009A5C
:100CD0000399029806DA00F017FA3246079B00F0F3
:100CE00013FA05E0FFF75EFC3246079BFFF75AFC5C
:100CF000049A002A02D00122D2075140099A03C265
:100D0000B4E7FFB591B0002009900025ED432E20F7
:100D10009E685C681F460190B9696D1C12988847EF
:100D20000090396A88470028F6D10098401C0AD004
:100D30000D20C0018443002E12DD00982B2809D01D
:100D40002D280DD103E00020C04315B0F0BD0120D7
:100D500080020443B9696D1C12988847761E009082
:100D600003A9600501D52D2000E02B206A461073F1
:100D7000491C0CA80F9102900AE0B9696D1C1298E9
:100D8000884700900120400204431398761E0560B6
:100D9000002E02DD00983028EFD00199009888429B
:100DA00045D18020044308E00998401E09900120A5
:100DB000400204431399681C0860B9696D1C761ED3
:100DC0001298884700903028EED030E00199884290
:100DD00005D1200603D480200443761E1DE0009830
:100DE00012F03EF9002825D0012149020C43009859
:100DF00007AA0F9903323038761E914208D2087044
:100E00000F98401C0F90200607D50998401E03E05C
:100E1000200602D40998401C0990A00502D5139918
:100E2000681C0860B9696D1C129888470090002EF4
:100E3000CCDC59E0002E57DD0098652801D045280C
:100E400052D1A00550D5032000028443B9696D1C1E
:100E5000761E129888470090002E0CDD2B2804D0B7
:100E60002D2808D1FF2001300443B9696D1C129868
:100E70008847761E0090E00501D52D2100E02B214A
:100E8000029801700298401C0290019025E0012018
:100E9000400204430EA902980131761E88420ED208
:100EA0000098029930380006000E087003D10299AC
:100EB000019881420AD90298401C029006E0E005A0
:100EC00001D5244801E0234840420990B9696D1CCE
:100ED00012988847009013980560002E04DD009852
:100EE00012F0BEF80028D2D1F969129888470F99FC
:100EF000FF200870029903AA087000200A900B9046
:100F00000CA90AA8099BFFF76DFEA00502D40120D9
:100F1000C0431AE72420044209D0E00713D13868FF
:100F20000B9A0A99031D3B60006806C00BE00B9901
:100F30000A9800F0E9FB0146E00704D13868021D79
:100F40003A60006801602846FFE600000000144097
:100F50000000F03FF1D8FFFF0268137851180160DC
:100F60001846704710B5D1600449516104491162B7
:100F700000211161114600F0CBF910BD590F000896
:100F8000E51200084268002A08D001680B78491C65
:100F9000002B03D0521E06C0184670470121C160C5
:100FA000881E70474268002A0BD0C3680168002B76
:100FB00007D183688B4204D0491E521C06C0002012
:100FC00070470020C0437047002904DA401C4900E4
:100FD00001D140084000704770B40024050C05D1D1
:100FE0001024000402D1002921D01124050E01D1C2
:100FF00000020834050F01D10001241D850F01D125
:101000008000A41C002801DB4000641C002908D0DB
:1010100020252E1B0D46F540A14000D0012129437B
:10102000084301061B1B000ADB1D02D5002070BC13
:101030007047DB05181880180029F8DA401C4900B1
:10104000F5D170BC40084000704710B5002B08DA9D
:101050000024401C614192185B411A4301D14008B1
:10106000400010BDF0B51FB482B005460C0003D09F
:10107000084611F077FE02E011F074FE20300246BF
:10108000009021462846FFF7CBFB049B059A0446B7
:101090000F4618431143084314D0184610431BD081
:1010A000009840210A1A18460599FFF769F8054685
:1010B0000E46009A05990498FFF7B2FB084305D045
:1010C000012004E02046394607B0F0BD0020C117DA
:1010D00005430E432C43374300990E986305401A8D
:1010E0007905E40A00220C43FD0A0A3002D50020EB
:1010F0000146E9E70105101969410C9C0D9D001995
:101100006941FFF7A2FFDFE7F0B50C465C4085B010
:10111000E40FE40703944C00002664085900944649
:10112000490802460296224321D062460A431ED055
:101130006200570D4A000E032303550D0124024699
:101140002C492405781B1B0B360B401823432643E0
:10115000614600901C46501AB44103D30098401CCD
:10116000009002E0921800985B41002803DA00200A
:10117000014605B0F0BD002001210905074686465D
:1011800011E064461D46141BB54106D36546521B4B
:10119000B341744607430C43A646CD0740084908AF
:1011A000284392185B4105460D43EAD11046184387
:1011B00013D06046194650407140084306D060463F
:1011C000101AB34106D20122002306E000220123B7
:1011D000DB0702E00122D243531000987446010558
:1011E000381C6141029C039D00196941FFF72DFFE6
:1011F000BFE70000FD03000070B54B005B08034330
:101200000BD04B005C0D002633466542B341D4172A
:10121000AD1AA34102DB0020014670BD1205301853
:10122000514170BD0EB5C217C10F5040CA074018DA
:101230000021054B0293019200910A460B46FFF7ED
:1012400011FF03B000BD0000330400004A00090391
:101250000123090B1B0519430A4B10B5520D9A4285
:1012600002DA0020014610BD064B34339A4203DCFB
:101270009A1AFEF785FF10BD034BD218FFF7D0FA7C
:1012800010BD0000FF030000CDFBFFFF10B50029DB
:1012900004DB0124E40740428C412146002B04DB9F
:1012A0001C460123DB075242A341994200D19042E0
:1012B00010BD00001CB50948009009480190054682
:1012C0000126009C05E0E36807CC33430C3C9847BB
:1012D0001034AC42F7D3FEF7F7FE000038A6010841
:1012E00058A6010810B50F21C0B2490200F028FA33
:1012F00010BD3A2800D23038202302469A43412AB2
:1013000001D310463738884201D30020C0437047CC
:10131000F3B58DB000200A9001200B9000260846FE
:101320000C300C4609906269012109989047051E0E
:101330002ED0252D2DD0216A8847002818D062692B
:10134000012109989047216A88470028F7D1411E5A
:1013500062690998904700E0761CA1690D9888475A
:10136000216A88470028F7D1E1690D988847DAE7B4
:10137000A1690D9888470746A84201D1761CD2E79B
:10138000E1690D9888477F1C02D10A98002877D020
:1013900049E1002762693D463946099890472A2865
:1013A0000CD16269012109989047012506E00A21C4
:1013B0004F433F18303FEBD41020054362690121B1
:1013C00009989047014630390A2903D29B498F4238
:1013D000DEDCECE7E90600D4994F6C280AD04C28F3
:1013E00010D0682824D06A282ED074280CD07A28EF
:1013F0000AD00DE062690121099890476C2823D03A
:1014000004211CE0202005436269012109989047CE
:10141000A760656065284FD026DC582839D01ADCD3
:10142000452849D012DC252834D04128B0D143E0EA
:101430006269012109989047682802D008210D436C
:10144000E6E70120C002DEE70220DCE7462833D0D1
:1014500047282CD130E05B2870D061282CD063283D
:101460006CD0642823D161E06F284FD009DC662856
:1014700022D0672820D0692826D06E2817D12EE0E8
:10148000CDE070284DD073286FD075284ED07828C5
:101490000DD154E0A1690D9888470546252800D153
:1014A0006CE7E1690D9888476D1C00D16DE7BAE0E3
:1014B0000A224CE00A2252E0012023466A46C04339
:1014C0000D99FFF71EFCA3E0284640210843606009
:1014D000A807234601D5002239E000223FE0E807B3
:1014E00000D020E72068011D21600068290501D592
:1014F000067018E7290701D5068014E7A90703D568
:10150000F117066041600EE706600CE728464021AF
:1015100008436060A807234601D5082217E0082287
:101520001DE0484928460840606016E028464021F2
:1015300008436060A8072346BCD5B9E715E02846F4
:10154000402108436060A80707D5234610220120E8
:10155000C0430D99FFF787F95AE023461022012076
:10156000C0430D99FFF724FA52E000210C910B467D
:101570000091632802D05B2807D043E0E80601D43D
:101580000120A060012000903CE0626901210998DF
:1015900090475E2805D101200C90014662690998A8
:1015A00090472169002906D10B4601AA8F00491CEA
:1015B000D3510829FADB002835D0216900290ED142
:1015C000C117C90E09184A11930001AA9A184909AE
:1015D0004901411A0120136888400343136062697E
:1015E0000121099890475D28E5D10C98002808D082
:1015F000002001AB81005A58401CD2435A500828A1
:10160000F8DB01AB01202246C0430D99FFF775FAC4
:1016100000280ADA401C06D10B98002803D00020CD
:10162000C0430FB0F0BD0A98FBE7E90702D10A9961
:10163000491C0A91361800200B9074E6CCCCCC0CD7
:10164000FFFFFF7FF1F7FFFFFEB500231A461B1ACD
:101650008A4103DB0020014603B0F0BD4A000D03C0
:1016600001212D0B0905520D0D43D10702D10018A0
:101670006D41521E5110FF31FF31013100270446E8
:101680003E46384600970191024601210020090597
:10169000FEF776FDC3197141F818324684468E462E
:1016A0004A4161462846611A904104D36046241A93
:1016B000954176461F46241900986D41401C0090C4
:1016C0003428E1DDF91930467041091BA84103D2E5
:1016D0000022D243134601E000221346019801057F
:1016E000381C7141FFF7B1FCB6E700000EB5054AA2
:1016F00002920022009213460192FFF7B3FC03B05E
:1017000000BD000033040000CB0FDB07490010B51B
:10171000490802460A4307D00A0D07240903E401D9
:10172000090B121B002A01DC002010BDC900440F68
:101730000C43C100E018D2058018FFF745FC10BD2E
:101740007F2801D9002207E0054B42089A5CC007B8
:1017500000D112091207120F012090400840704773
:101760007842010870B58C180578401C6B075B0F38
:1017700001D10378401C2A1106D10278401C03E0F5
:1017800006780E70401C491C5B1EF9D12B0705D44E
:101790000023521E0DD40B70491CFAE70378401C3D
:1017A000CB1A921C03E01D780D70491C5B1C521E65
:1017B000F9D5A142D8D3002070BD80B584B0029085
:1017C000002001900298006880684007002804D437
:1017D000FFE70020002804D141E0002000283ED18E
:1017E000FFE7029800688068400700280ED5FFE7F1
:1017F0000298006880688007002807D4FFE70298F5
:1018000001688868102210438860FFE701F012FD2C
:101810000190FFE7029800688068400700281DD506
:10182000FFE701F007FD0199401A032815D3FFE7F0
:10183000029800688068400700280DD5FFE70299EC
:10184000886B102210438863029AD16B01200143F8
:10185000D16303A9087006E0FFE7DBE7FFE703A910
:1018600000200870FFE703A8007804B080BD80B5B1
:1018700086B00490002003900499096889680322C7
:1018800011400129029013D1FFE704980068016814
:10189000012001400129019007D0FFE7049800686A
:1018A000C06880B2C00B0190FFE701980290FFE78B
:1018B0000298C00700284BD0FFE7049800688068B2
:1018C0000521084001280DD1FFE7FFE704980168D2
:1018D0008868022210438860049801680320086029
:1018E000FFE70CE00499886B102210438863049A88
:1018F000D16B01200143D16305A908702CE001F0F0
:1019000099FC0390FFE7049800688068C0070028EE
:101910001DD0FFE701F08EFC0399401A032815D370
:10192000FFE7049800688068C00700280DD0FFE733
:101930000499886B102210438863049AD16B0120AC
:101940000143D16305A9087006E0FFE7DBE7FFE785
:1019500005A900200870FFE705A8007806B080BD43
:1019600080B586B004900020039002900499096825
:101970008968032211400129019013D1FFE70498DF
:1019800000680168012001400129009007D0FFE7AD
:1019900004980068C06880B2C00B0090FFE7009810
:1019A0000190FFE70198C007002852D1FFE7049893
:1019B000006880682B4908420DD0FFE70499886BC6
:1019C000102210438863049AD16B01200143D16334
:1019D00005A9087041E00498016888680122104355
:1019E0008860214800682149FEF7D2FE0290FFE797
:1019F0000298002804D0FFE70298401E0290F7E703
:101A000001F018FC0390FFE7049800680068C00725
:101A100000281DD1FFE701F00DFC0399401A0328AF
:101A200015D3FFE7049800680068C00700280DD1AF
:101A3000FFE70499886B102210438863049AD16BE6
:101A400001200143D16305A9087006E0FFE7DBE749
:101A5000FFE705A900200870FFE705A8007806B099
:101A600080BDC046170000807800002040420F0073
:101A7000024903480860A02008717047AC1F00208D
:101A80005C23002010B588B0069005A80180049260
:101A900003A90B80407802AA10700598507006992F
:101AA000086809790023DB430093022301F004FF57
:101AB000002804D0FFE707A9002008700FE006996E
:101AC00008680979049A03AB1B880024E443009456
:101AD00001F0F4FD4142484107A90870FFE707A85B
:101AE000007808B010BD80B586B0049003A80180CE
:101AF0000292407801AA1070039850700499086807
:101B000009790023DB430093022301F0D5FE00286E
:101B100004D0FFE705A9002008700EE004990868CA
:101B20000979029A0023DB430093012301F0C6FDEB
:101B30004142484105A90870FFE705A8007806B0B2
:101B400080BD80B584B0029001F074FB0A30019032
:101B5000FFE70299086809790A231A4601F09CFCFC
:101B600000280BD0FFE701F065FB0199884204D9FA
:101B7000FFE703A90020087004E0EAE703A90120B9
:101B80000870FFE703A8007804B080BD10B594B0DA
:101B9000129011A8018010920FA80380FFE70FA8F0
:101BA0000088012855DBFFE711A800881F210840A5
:101BB0000EA908800E992020401A0DA908800FA8B0
:101BC00000880988884204DAFFE70FA8008802909D
:101BD00003E00DA800880290FFE702980CAA10808D
:101BE00011A8417803A80190017011994170801CDF
:101BF00010991288FEF7D5FA019A129908680979A6
:101C00000C9B9B1C0024E44300949BB201F054FE07
:101C1000002804D0FFE713A9002008701DE01298E7
:101C2000FFF78FFF002804D1FFE713A900200870F9
:101C300013E00C991198401811A908800CA801888C
:101C40001098401810900C990F98401A0FA908800E
:101C5000A5E713A901200870FFE713A8007814B0C6
:101C600010BD80B586B0049003A8018002A90A7057
:101C7000407801AA107003985070029890700499EF
:101C8000086809790023DB430093032301F014FE65
:101C9000002804D0FFE705A90020087005E004989B
:101CA000FFF74FFF05A90870FFE705A8007806B009
:101CB00080BD000084B0034603A80370029101A90F
:101CC0000A8000780090232855D80098810001A050
:101CD00040588746651D0008671D0008691D0008FB
:101CE0006B1D00086D1D0008771D0008771D00089A
:101CF000771D0008771D0008771D0008771D000874
:101D0000771D0008771D0008771D0008771D000863
:101D1000771D0008771D0008771D0008771D000853
:101D2000771D0008771D0008771D0008771D000843
:101D3000771D0008771D0008771D0008771D000833
:101D4000771D0008771D0008771D0008771D000823
:101D5000771D00086F1D0008711D0008731D000825
:101D6000751D000808E007E006E005E004E003E078
:101D700002E001E000E0FFE7002004B0704700202F
:101D80007047000080B582B03648009005490022B7
:101D900001920AF0FCF8009803490AF0E8F801986B
:101DA00002B080BDA80C0020A808002080B584B037
:101DB0000390029103992B4801900AF0D8F80198FA
:101DC0000AF08CF802980068FF2810D8FFE7039902
:101DD000029802680A480090FEF7E3F90099029819
:101DE000026800208854074901200870FFE7064870
:101DF000034901221202FEF7D4F9002004B080BD8D
:101E0000ED100020D3270020ED11002080B586B012
:101E1000049003A8018002A90020087011485721EE
:101E2000C900405801900198852189004058002838
:101E300004D0FFE705A9012008700FE0049903A86A
:101E40000288084800900AF0A2F800980AF06EF99B
:101E500002A90870029805A90870FFE705A8007894
:101E600006B080BDC01F002080B5024800F0C1FE52
:101E700080BDC046C422002080B582B00190019888
:101E800000900068064940181421FEF781FC009973
:101E90008000086401990348C86302B080BDC04651
:101EA000F8FFFDBF0000024084B003900291019250
:101EB000009303990A6C01209040C96B4860009818
:101EC00003990968486003984068102809D1FFE722
:101ED0000198039909688860029803990968C860A5
:101EE00008E00298039909688860019803990968D5
:101EF000C860FFE704B0704780B592B00EF004FEF2
:101F0000002801D0FFE731E00022059211921092E3
:101F10000F920E920D920C920B920A9209920892D5
:101F20000792134803900DA9049104F09DF9059AB6
:101F300003980CA904F05CF904990B784878897827
:101F4000019100900B4A07A80690142110F0DAFEC8
:101F50000599069A0848036840680291074901916B
:101F60000090DC20542109F013FAFFE712B080BD85
:101F70008C260020FD9A0108280000201FF8000090
:101F8000B0B592B00B46014611A8018010A90B8094
:101F90000FAB07931A70008809883E4A029201929B
:101FA00002220392009219220A2308F035FE029BB6
:101FB000039A119819301099C91C009380B289B204
:101FC0000423059308F039FC1198401C1099491C12
:101FD00000220692009280B289B21722082304934D
:101FE00008F02BFC049B059A069907980EAD052472
:101FF0002C800DAC23800CAB1A800BAB01221A8015
:102000000AAA11800078032805D1FFE73F2040018C
:102010000AA9088014E00FA80078022804D1FFE77D
:102020000AA91D4808800AE00FA80078012805D1F8
:10203000FFE71F20C0020AA90880FFE7FFE7FFE7CC
:1020400000200990FFE709980FA9097888421FDA54
:10205000FFE71198099A0E990C9BC9185143401833
:10206000411C08A8018000881099491C0EAA1288FA
:102070000DAB1B880BAC24880AAD2D88019500940C
:1020800089B208F0C9FDFFE70998401C0990DAE71A
:1020900012B0B0BD18C60000E0FF000080B594B0DB
:1020A00013900EA9002008700BAA852111816B499D
:1020B0000C916B490B910AA9087013980690FEF7D2
:1020C00015FBFEF701FB01460698FEF7EFFA002824
:1020D00012D0FFE71398FEF709FB0246624910A8E9
:1020E000059010F02BFE0598FEF78BF80FA90870ED
:1020F0000EA90020087012E01398FEF735FB024687
:102100000B46584910A8049010F018FE0498FEF7EA
:1021100078F80FA908700EA901200870FFE70FA832
:102120000078052804D1FFE70AA9002008701DE007
:102130000FA80078042804D1FFE70AA9012008703D
:1021400013E00FA8007803280AD0FFE70FA8007853
:10215000022805D0FFE70FA80078012804D1FFE787
:102160000AA902200870FFE7FFE7FFE700200990B7
:102170000890FFE7089804286EDCFFE708980AA992
:102180000978884242DBFFE708980AA909780FAA74
:1021900012788918884239DAFFE709980FA9097877
:1021A000884233DAFFE7099910A8405C2E2804D151
:1021B000FFE707A90A20087006E0099910A8405C0B
:1021C000303807A90870FFE70899284840560022D0
:1021D00007A98956884215D0FFE7089841000BA847
:1021E000405A07A90A7800210291474901914021EC
:1021F00000910A211E2308F003FF0798089A1B4943
:102200008854FFE70998401C099020E007A90B209B
:102210000870089A1548805600228956884215D0C1
:10222000FFE7089841000BA8405A07A90A78002147
:10223000029135490191402100910A211E2308F0A5
:10224000DFFE0798089A09498854FFE7FFE7FFE790
:102250000898401C08908DE714B080BD45006500CB
:1022600005002500469B0108F9980108060000209A
:10227000B0B590B021480F900E9021480D900C9071
:1022800020490B91052080040A900991089007A924
:1022900000200870FFE707A8007807282BDCFFE77D
:1022A00007A80390007842000CA80490805A08A95F
:1022B0000591895A00250295134C01941423069325
:1022C0000093D2B208F09CFE039A04980599069BED
:1022D00012785200805A1430895A521C0295019487
:1022E000009380B2D2B208F08BFEFFE70798401C43
:1022F00007A90870CFE710B0B0BDC046FA00FA00D9
:10230000AF00AF0028003C00FFFF0000B0B58CB06C
:1023100023480088234909680A012349891805913F
:10232000C9880491401AFEF7CFF90499024605982E
:1023300006920089401AFEF7C7F901460698FEF793
:1023400041F81A49FEF701F80B900B98FEF7CEF909
:102350000AA908801648099000881A30154C23688D
:102360006168002202920192009180B2124A0892A2
:102370009221079109F00CF80799089A0A981A30E7
:10238000236864681F25ED0202950195009480B2D0
:1023900008F0FEFF09990A9808800CB0B0BDC0464D
:1023A000F6120020D8100020D001002000808143C8
:1023B0002C040020280000201F9A010881B0EFF3B0
:1023C000108072B60090FFE7FEE7000080B584B091
:1023D0001048006803901048006802900F48006899
:1023E00001900199039840180390039800280ED09B
:1023F000FFE703980A490091891C082205F01CFE9A
:10240000009902981231042205F016FEFFE704B08D
:1024100080BDC046ACF7FF1FB0F7FF1FB4F7FF1F2A
:10242000B401002080B58CB00A90099108A9002061
:10243000087007900A98C06A01210907884224D0D1
:10244000FFE70A98C06A01281FD0FFE70A98C06A10
:1024500002281AD0FFE70A98C06A032815D0FFE7C0
:102460000A98C06A042810D0FFE70A98C06A0528B5
:102470000BD0FFE70A98C06A062806D0FFE70A9843
:10248000C06A072801D0FFE7FFE7FFE70A98342179
:10249000405C012804D1FFE70BA902200870F0E09E
:1024A0000A99342201208854FFE7FFE70A98006860
:1024B0008068042108408008002800D0CEE00998F8
:1024C00040687249884200D191E009980068012172
:1024D0000B4683400A980268906A184390620A98F3
:1024E000C06A090788423DD0FFE70A98C06A012800
:1024F00038D0FFE70A98C06A022833D0FFE70A986D
:10250000C06A03282ED0FFE70A98C06A042829D0A1
:10251000FFE70A98C06A052824D0FFE70A98C06A36
:1025200006281FD0FFE70A98C06A07281AD0FFE7DD
:10253000099880680A990968496907221140884208
:102540000FD0FFE70A980268516907208143516163
:1025500009998A6802400A980168486910434861ED
:10256000FFE7FFE70998006810280AD0FFE70998FD
:102570000068112805D0FFE709980068122835D1B6
:10258000FFE709980068102804D1FFE70120C00583
:1025900006900DE009980168012290051206049248
:1025A0001129059001D00498059005980690FFE741
:1025B000069A37490868104308600998006810288F
:1025C00013D1FFE7334800683349FEF7E1F80146CD
:1025D0000A2048430790FFE70798002804D0FFE748
:1025E0000798401E0790F7E7FFE7FFE735E00998F7
:1025F0000068012282400A980168886A90438862D4
:102600000998006810280AD0FFE709980068112887
:1026100005D0FFE70998006812281DD1FFE7099847
:102620000068102804D1FFE70120C00503900DE0E9
:102630000998016801229005120601921129029061
:1026400001D00198029002980390FFE7039A104985
:10265000086890430860FFE7FFE708E00A99886B85
:1026600020221043886308A901200870FFE7FFE7D4
:102670000A99342200208854FFE708980BA90870B3
:10268000FFE70BA800780CB080BDC0460110000029
:10269000082701407800002040420F0081B00090E0
:1026A00000980068006C01B07047000080B586B0EB
:1026B000049003A90020087002900498002804D117
:1026C000FFE705A90120087023E10498806B00282A
:1026D0000AD1FFE704990020C86304993422885482
:1026E000049800F01FF9FFE70498806BC0060028EB
:1026F00000D501E103A80078002800D0FCE0049890
:1027000000688068042108408008002800D0F3E0B9
:102710000498806B0221084301210902884304992F
:102720008863049800688168032001400020012923
:10273000019013D1FFE7049800680168012001406F
:102740000129009007D0FFE704980068C06880B2B4
:10275000C00B0090FFE700980190FFE70198C007C9
:10276000002816D1FFE704980068C0681821884344
:1027700004998A6810430968C86004980068006971
:1027800003218907884304994A681043096808614E
:10279000FFE704980168C868604A1040C860049860
:1027A000017E8903427ED2031143827E520311438C
:1027B000826A521E531E9A4112038918C26811433D
:1027C0000269921E53425A41920011432422805CB6
:1027D000400001430298084302900498C07E0128FB
:1027E00017D1FFE70498807E002806D1FFE7029802
:1027F00001210904084302900AE00499886B202211
:10280000104388630499C86B01221043C863FFE733
:10281000FFE70498C069FF21C231884208D0FFE772
:102820000498C169006A0143029808430290FFE7D7
:10283000029A04980168C8681043C8600498C06A86
:1028400001210907884223D0FFE70498C06A0128C4
:102850001ED0FFE70498C06A022819D0FFE7049849
:10286000C06A032814D0FFE70498C06A04280FD078
:10287000FFE70498C06A05280AD0FFE70498C06AF9
:10288000062805D0FFE70498C06A07280ED1FFE7A5
:102890000498026850690721884350610498C26A0D
:1028A0000A400168486910434861FFE704980068DE
:1028B000C0681B490840029988420CD1FFE704997F
:1028C0000020C8630498806B0121084302218843DB
:1028D000049988630FE00498806B1021084302215B
:1028E000884304998863049AD16B01200143D16322
:1028F00003A90870FFE708E00499886B10221043D1
:10290000886303A901200870FFE7039805A90870F0
:10291000FFE705A8007806B080BDC0461902FEFF9B
:10292000E7FF3F8382B0019001980068094988421F
:102930000DD1FFE7FFE708480268012149020A4379
:1029400002600068084000900098FFE7FFE702B0CF
:102950007047C046002401401810024080B586B080
:102960000490039104984069082803D1FFE70820E8
:10297000019019E004980068C068C00700280FD0D3
:10298000FFE70499886B202210438863FFE70499CE
:10299000342200208854FFE705A90120087085E053
:1029A0000C200190FFE7FFE700F044FC0290FFE7F6
:1029B000049800680068019908422AD1FFE703984B
:1029C000401C002824D0FFE70398002808D0FFE728
:1029D00000F030FC0299401A0399884217D9FFE7AA
:1029E000049800680068019908420FD1FFE7049934
:1029F000886B042210438863FFE704993422002087
:102A00008854FFE705A9032008704FE0FFE7FFE7C0
:102A1000CEE70499886B0122520210438863049820
:102A20000068C0680005800F002831D1FFE70498D6
:102A3000807E00282CD1FFE704980068006800071A
:102A4000002824D5FFE70498006880680421084026
:102A5000800800280FD1FFE70498016848680C221D
:102A6000904348600498806B012108430902884321
:102A7000049988630AE00499886B202210438863D4
:102A80000499C86B01221043C863FFE7FFE7FFE723
:102A90000498007E002805D1FFE7049801680C2007
:102AA0000860FFE705A900200870FFE705A8007887
:102AB00006B080BD80B584B0029001A900200870E6
:102AC00002980068806804210840800800283FD1EF
:102AD000FFE7FFE702983421405C012804D1FFE7BB
:102AE00003A9022008703BE0029934220120885497
:102AF000FFE7FFE70298407E012806D0FFE7029833
:102B0000FEF72EFF01A90870FFE701A80078002852
:102B10001DD1FFE70298806B012109020843124989
:102B200008400299886302990020C863FFE7029970
:102B3000342200208854FFE7029801681C200860B6
:102B4000029801688868042210438860FFE703E068
:102B500001A902200870FFE7019803A90870FFE7A8
:102B600003A8007804B080BDFEF1FFFF80B584B0FB
:102B7000029001A900200870FFE702983421405C10
:102B8000012804D1FFE703A9022008702DE0029973
:102B9000342201208854FFE7FFE70298FEF70DFE7C
:102BA000014601A801700078002814D1FFE70298BF
:102BB000FEF75DFE014601A801700078002809D1EA
:102BC000FFE70298806B01210843090288430299BC
:102BD0008863FFE7FFE7FFE702993422002088546B
:102BE000FFE7019803A90870FFE703A8007804B085
:102BF00080BD80B584B003900398C06B00680290DC
:102C0000039800680068019002980399096CC84015
:102C10004007002824D5FFE701A8007840070028D6
:102C20001ED5FFE70398006800688006002807D4D7
:102C3000FFE7039801680868042290430860FFE7F3
:102C400003990A6C04209040C96B48600398C06ADD
:102C5000002804D0FFE70398C16A8847FFE767E0D0
:102C600002980399096CC840800700282ED5FFE719
:102C700001A800788007002828D5FFE7039800689E
:102C80000068800600280BD4FFE7039801680868F5
:102C90000A22904308600399212201208854FFE70B
:102CA00003990A6C02209040C96B4860FFE70399C2
:102CB000202200208854FFE70398806A002804D06F
:102CC000FFE70398816A8847FFE730E0029803999D
:102CD000096CC8400007002828D5FFE701A8007844
:102CE0000007002822D5FFE70398016808680E2234
:102CF00090430860039A136C012001469940D26BFF
:102D0000516003998863039921228854FFE703994E
:102D1000202200208854FFE70398006B002804D08D
:102D2000FFE70398016B8847FFE7FFE7FFE7FFE74F
:102D300004B080BD80B584B002900020019002985C
:102D4000002804D1FFE703A90120087031E00299AF
:102D500021220092022088540298006800680190A5
:102D60000198164908400190029841688268114311
:102D7000C2681143026911434269114382691143D8
:102D8000C0690143019808430190019802990968BC
:102D900008600298FFF770F8009B02990020886392
:102DA000029A0121D15402992022885403A9087063
:102DB000FFE703A8007804B080BDC0460FC0FFFF46
:102DC00080B586B004900391029201936946002079
:102DD0000870FFE704982021405C012804D1FFE738
:102DE00005A9022008704CE0049920220120885493
:102DF000FFE7FFE704982121405C012833D1FFE77A
:102E000004992122022088540499002088630498A0
:102E10000168086801229043086004980399029AA7
:102E2000019BFFF741F80498C06A002807D0FFE72C
:102E30000498016808680E22104308600CE00498AA
:102E4000016808680A22104308600498016808684D
:102E5000042290430860FFE7049801680868012293
:102E60001043086009E0FFE70499202200208854FD
:102E7000FFE7694602200870FFE7009805A908707F
:102E8000FFE705A8007806B080BD000080B584B0DB
:102E9000039000F0CFF90290039801900198401C34
:102EA000002806D0FFE709480178019840180190F2
:102EB000FFE7FFE700F0BEF90299401A0199884246
:102EC00001D2FFE7F6E704B080BDC0466C040020E5
:102ED0008CB00B900A9100200990FFE70A980068D7
:102EE0000999C840002800D15DE10A980068099A54
:102EF00001219140084008900898002800D14EE137
:102F00000A98406803210840012807D0FFE70A9883
:102F100040680321084002282CD1FFE70B98806805
:102F20000790099840000321814007988843079043
:102F30000A98C168099840008140079808430790A3
:102F400007980B9988600B984068079009980121B1
:102F500081400798884307900A98406810210840EC
:102F600001090998814007980843079007980B9931
:102F70004860FFE70A98406803210840032816D0FC
:102F8000FFE70B98C0680790099840000321814033
:102F90000798884307900A98816809984000814003
:102FA00007980843079007980B99C860FFE70A98AD
:102FB000406803210840022820D1FFE70B980999B7
:102FC000C90889004018006A079009984007C00E98
:102FD0000F2181400798884307900A980169099852
:102FE0004007C00E814007980843079007980B9947
:102FF000099AD208920089180862FFE70B980068C6
:10300000079009984100032002468A40079991439E
:1030100007910A9949680140099840008140079842
:103020000843079007980B9908600A9880798007F1
:10303000002800D1B2E0FFE75C48026801210A43A2
:1030400002600068084006900698FFE7099803218F
:10305000884357494058079009988007000F0F216F
:1030600081400798884307900B980921C906884238
:1030700003D1FFE7002005902DE00B984D498842D1
:1030800003D1FFE70120049022E00B984A498842CF
:1030900003D1FFE70220039017E00B9847498842CD
:1030A00003D1FFE7032002900CE00B99444A04206F
:1030B000052300939142019001D00098019001985E
:1030C0000290FFE702980390FFE703980490FFE760
:1030D00004980590FFE7059909988007000F814043
:1030E0000798084307900798099903229143304AAB
:1030F00088503448006807900899079888430790DB
:103100000A988079C006002805D5FFE70899079836
:1031100008430790FFE707982A4908602A48006893
:10312000079008990798884307900A988079800645
:10313000002805D5FFE70899079808430790FFE79F
:103140000798214908602148006807900899079866
:10315000884307900A9880798007002805D5FFE703
:103160000899079808430790FFE7079817490860F0
:1031700017480068079008990798884307900A98AD
:103180008079C007002805D0FFE708990798084311
:103190000790FFE707980E490860FFE7FFE70998E7
:1031A000401C09909AE60CB07047C04618100240C7
:1031B000080001400004004800080048000C0048D6
:1031C00000100048080401400C04014004040140C0
:1031D0000004014084B0009101460098039102A9C7
:1031E0000880039800690988084204D0FFE701A914
:1031F0000120087003E001A900200870FFE701A882
:10320000007804B0704783B0029001A8018068463E
:1032100002700078002805D0FFE701A80088029915
:10322000886104E001A8008802998862FFE703B082
:1032300070470000014800687047C046A828002079
:1032400010B583B00190009101984121405C202885
:1032500039D1FFE7FFE701984021405C012804D104
:10326000FFE702A90220087031E001994022012005
:103270008854FFE7FFE701994122242088540198F0
:10328000016808680123984308600198016808688C
:103290001C03A0430860009C019801680868204353
:1032A00008600198016808681843086001992020A7
:1032B0008854FFE70199402200208854FFE702A9C3
:1032C0000020087003E002A902200870FFE702A8AE
:1032D000007803B010BD84B00290019102984121A2
:1032E000405C20283FD1FFE7FFE702984021405C87
:1032F000012804D1FFE703A90220087037E00299F2
:10330000402201208854FFE7FFE702994122242050
:10331000885402980168086801239843086002985D
:1033200000680068009000980F210902884300900F
:1033300001980102009808430090009802990968DA
:103340000860029801680868184308600299202004
:103350008854FFE70299402200208854FFE703A920
:103360000020087003E003A902200870FFE703A80B
:10337000007804B07047000080B582B000900098DB
:10338000002804D1FFE701A9012008707EE0009821
:103390004121405C002808D1FFE70099402200202D
:1033A0008854009800F006FEFFE70099412224208F
:1033B00088540098016808680122904308600099C9
:1033C00048680F231B069843096808610098016844
:1033D0008868D203904388600098C068012808D1AB
:1033E000FFE7009988680122D203104309688860CA
:1033F00007E00099886821229202104309688860DA
:10340000FFE70098C068022808D1FFE7009801682C
:1034100048680122D2021043486007E00098016822
:1034200048680122D20290434860FFE70098016893
:103430004868184A1043486000980168C86801222B
:10344000D3039843C860009908694B6918438B6996
:103450001B0218430968C8600099C8690B6A1843C1
:1034600009680860009801680868104308600099BE
:1034700000204864009A41232021D1540099086318
:1034800000994222885401A90870FFE701A800783A
:1034900002B080BD0080000210B58CB00A9009A86F
:1034A000018008920793002005900A984121405C12
:1034B000202800D0F4E00A980068806980B2C00B30
:1034C000012804D1FFE70BA902200870ECE0FFE718
:1034D0000A984021405C012804D1FFE70BA9022093
:1034E0000870E1E00A99402201208854FFE7FFE7D5
:1034F0000A994122242088540A9900204864FFE751
:103500000A98C068012808D1FFE709A8008868491F
:10351000084069494018029007E009A800886449FA
:103520000840644940180290FFE702980A99096828
:103530004860FFF77FFE06900A98006880692021A6
:103540000840400904A908700A98006880691021A1
:103550000840000903A90870FFE704A801780020CB
:103560000029019006D1FFE703A8007841424841B5
:103570000190FFE70198C007002835D0FFE70798C2
:10358000401C00281FD0FFE7FFF754FE0699401AA1
:103590000799884204D8FFE70798002812D1FFE76F
:1035A0000A984121202242540A99486C10434864E9
:1035B000FFE70A99402200208854FFE70BA9012069
:1035C000087071E0FFE70A980068806920210840D0
:1035D000400904A908700A98006880691021084011
:1035E000000903A90870B8E70A98006880691021EB
:1035F00008400009002820D1FFE70A98079B069998
:1036000000912021002204F007FB002804D0FFE7EE
:103610000BA90120087047E00A9801682020C861C2
:103620000A9941228854FFE70A99402200208854D1
:10363000FFE70BA90020087036E00A98079B06995F
:1036400000912021002204F0E7FA002804D0FFE7CF
:103650000BA90120087027E00A9801681020C861B2
:103660000A9801682020C861FFE70598401C059072
:10367000FFE705980899884200D241E70A9841215E
:10368000202242540A99486C10434864FFE70A9983
:10369000402200208854FFE70BA90120087003E0B6
:1036A0000BA902200870FFE70BA800780CB010BD32
:1036B000FF030000002800020020000210B588B0BF
:1036C0000A9C069005A80180049203A8038006982E
:1036D0004121405C202800D0E4E0FFE7069840212B
:1036E000405C012804D1FFE707A902200870DDE053
:1036F0000699402201208854FFE7FFE7FFF79AFD73
:1037000002900698029900910122D103192304F036
:1037100083FA002804D0FFE707A901200870C5E05C
:10372000069941222220885406994222102088546A
:103730000699002048640499069A51620399069AF2
:103740005185069948630698408D000A00280ED0DE
:10375000FFE7069801230385069805A90988282212
:10376000825C544C00941B0604F02CFA0FE006987F
:10377000408D06990885069805A909882822825C4B
:103780004C4B009301235B0604F01CFAFFE7FFE7B4
:103790000698408D00285ED0FFE706980A99029AA5
:1037A00004F09CFA002804D0FFE707A90120087064
:1037B0007CE006980068406A0699496A0870069994
:1037C000486A401C48620699088D401E0885069983
:1037D000488D401E48850698408D00283AD0FFE766
:1037E0000698008D002835D1FFE706980A9B0299BC
:1037F00000918021002204F00FFA002804D0FFE796
:1038000007A90120087051E00698408D000A0028A1
:103810000FD0FFE70699FF200885069805A90988BB
:103820002822825C0023009301231B0604F0CAF9BE
:103830000FE00698408D06990885069805A9098825
:103840002822825C0023009301235B0604F0BAF96E
:10385000FFE7FFE79CE706980A99029A04F0EEFA60
:10386000002804D0FFE707A9012008701EE0069891
:1038700001682020C86106990A6851689C4B19406C
:1038800051600699412288540699422200208854AA
:10389000FFE70699402200208854FFE707A900208F
:1038A000087003E007A902200870FFE707A8007866
:1038B00008B010BD0024008010B588B00A9C0690A6
:1038C00005A80180049203A8038006984121405C6A
:1038D000202800D001E1FFE706984021405C012844
:1038E00004D1FFE707A902200870FAE006994022F8
:1038F00001208854FFE7FFE7FFF79CFC0290069841
:10390000029900910122D103192304F085F90028BE
:1039100004D0FFE707A901200870E2E006994122E0
:1039200021208854069942221020885406990020AC
:1039300048640499069A51620399069A518506993A
:1039400048630698408D000A002807D0FFE70699D3
:10395000FF20088501200006019007E00698408DB1
:1039600006990885012040060190FFE70698008D22
:1039700000281DD0FFE70699486A00780968886228
:103980000699486A401C48620699488D401E488541
:103990000699088D401E0885069805A90988028D9C
:1039A000521C019B514C0094D2B204F00BF90AE076
:1039B000069805A909882822825C019B4B4C00943B
:1039C00004F000F9FFE7FFE70698408D00285DD07E
:1039D000FFE706980A99029A04F080FA002804D0BA
:1039E000FFE707A9012008707BE00699486A007884
:1039F000096888620699486A401C48620699488DA1
:103A0000401E48850699088D401E08850698408D01
:103A100000283AD0FFE70698008D002835D1FFE74F
:103A200006980A9B029900918021002204F0F4F884
:103A3000002804D0FFE707A90120087051E006988C
:103A4000408D000A00280FD0FFE70699FF20088567
:103A5000069805A909882822825C00230093012387
:103A60001B0604F0AFF80FE00698408D0699088514
:103A7000069805A909882822825C00230093012367
:103A80005B0604F09FF8FFE7FFE79DE706980A99B9
:103A9000029A04F0D3F9002804D0FFE707A9012017
:103AA00008701EE0069801682020C86106990A681F
:103AB0005168A84B194051600699412288540699D3
:103AC000422200208854FFE70699402200208854B3
:103AD000FFE707A90020087003E007A9022008708B
:103AE000FFE707A8007808B010BDC046002000809E
:103AF00000E800FEB0B58AB0044610980F980E9DFD
:103B0000089407AC218006A90A8005A90B8004A9A6
:103B1000088008984121405C202800D010E10E98D0
:103B2000002805D0FFE704A80088002807D1FFE798
:103B3000089A01204102516409A9087004E1FFE7D5
:103B400008984021405C012804D1FFE709A9022020
:103B50000870F9E00899402201208854FFE7FFE748
:103B6000FFF768FB03900898039900910122D103A5
:103B7000192304F051F8002804D0FFE709A9012017
:103B80000870E1E0089941222220885408994222D5
:103B9000402088540899002048640E99089A516280
:103BA0000499089A518508994863089807A90988D3
:103BB00006AA128805AB1B88109C039D01950094F2
:103BC00003F046FF00280AD0FFE7FFE708994022EC
:103BD00000208854FFE709A901200870B4E0089884
:103BE000408D000A00280ED0FFE7089801230385C6
:103BF000089807A909882822825C554C00941B0666
:103C000003F0E0FF0FE00898408D089908850898B8
:103C100007A909882822825C4D4B009301235B068B
:103C200003F0D0FFFFE7FFE70898109B039900918E
:103C30000421002203F0F0FF002804D0FFE709A9C7
:103C40000120087080E008980068406A0899496A75
:103C500008700899486A401C48620899088D401EFF
:103C600008850899488D401E48850898408D002891
:103C700039D0FFE70898008D002834D1FFE7089875
:103C8000109B039900918021002203F0C5FF0028BA
:103C900004D0FFE709A90120087055E00898408D7D
:103CA000000A00280ED0FFE7089801230385089832
:103CB00007A909882822825C002400941B0603F0CF
:103CC00081FF0FE00898408D08990885089807A99A
:103CD00009882822825C0023009301235B0603F0FD
:103CE00071FFFFE7FFE7FFE70898408D00289BD1B1
:103CF000FFE708981099039A04F0A0F8002804D070
:103D0000FFE709A9012008701EE00898016820203B
:103D1000C86108990A685168A54B19405160089913
:103D2000412288540899422200208854FFE70899CC
:103D3000402200208854FFE709A90020087003E012
:103D400009A902200870FFE709A800780AB0B0BDF1
:103D50000024008000E800FEB0B58AB00446109848
:103D60000F980E9D089407AC218006A90A8005A92A
:103D70000B8004A9088008984121405C202800D0CD
:103D80000EE10E98002805D0FFE704A8008800285F
:103D900007D1FFE7089A01204102516409A9087080
:103DA00002E1FFE708984021405C012804D1FFE7C9
:103DB00009A902200870F7E00899402201208854E0
:103DC000FFE7FFE7FFF736FA0390089803990091A1
:103DD0000122D103192303F01FFF002804D0FFE7BD
:103DE00009A901200870DFE00899412221208854A8
:103DF00008994222402088540899002048640E996E
:103E0000089A51620499089A51850899486308985C
:103E100007A9098806AA128805AB1B88109C039D78
:103E20000195009403F070FE00280AD0FFE7FFE739
:103E30000899402200208854FFE709A90120087052
:103E4000B2E00898408D000A00280FD0FFE70899DB
:103E5000FF200885089807A909882822825C00238A
:103E6000009301231B0603F0ADFE0FE00898408D80
:103E700008990885089807A909882822825C0023E8
:103E8000009301235B0603F09DFEFFE7FFE7089820
:103E90001099039A04F022F8002804D0FFE709A93A
:103EA0000120087080E00899486A007809688862F3
:103EB0000899486A401C48620899488D401E488508
:103EC0000899088D401E08850898408D00283AD032
:103ED000FFE70898008D002835D1FFE70898109B70
:103EE000039900918021002203F096FE002804D05F
:103EF000FFE709A90120087056E00898408D000AE4
:103F000000280FD0FFE70899FF200885089807A927
:103F100009882822825C0023009301231B0603F0FA
:103F200051FE0FE00898408D08990885089807A968
:103F300009882822825C0023009301235B0603F09A
:103F400041FEFFE7FFE7FFE70898408D00289ED17C
:103F5000FFE708981099039A03F070FF002804D037
:103F6000FFE709A9012008701EE0089801682020D9
:103F7000C86108990A6851680D4B19405160089949
:103F8000412288540899422200208854FFE708996A
:103F9000402200208854FFE709A90020087003E0B0
:103FA00009A902200870FFE709A800780AB0B0BD8F
:103FB00000E800FE80B58AB00990002008900790C4
:103FC000069005900490099800682D49884227D1F1
:103FD000FFE7FFE72C480268012189040A430260D9
:103FE0000068084003900398FFE7C0200490122067
:103FF0000590002006900320079001200890234898
:1040000004A9FEF765FFFFE758480268012149054A
:104010000A4302600068084002900298FFE72DE022
:10402000099800681749884227D1FFE7FFE716483B
:104030000268012189040A43026000680840019077
:104040000198FFE7032081020491122105910021CC
:1040500006910790012008900C4804A9FEF738FF4C
:10406000FFE742480268012189050A4302600068AF
:10407000084000900098FFE7FFE7FFE70AB080BD27
:104080000054004000580040141002400004004852
:104090002648027802490868801808607047C046C0
:1040A000A828002080B5064908681022104308603F
:1040B000012000F007F800F03DF8002080BDC04668
:1040C0000020024080B584B002901748006801903B
:1040D000164801787D20C000FCF75AFB0146019884
:1040E000FCF756FB02F086FE002804D0FFE703A988
:1040F0000120087014E00298032809D8FFE702990C
:104100000022D04300F03FF802980949086003E01C
:1041100003A90120087003E003A900200870FFE74D
:1041200003A8007804B080BD780000206C04002053
:104130007004002082B0FFE70B48026801210A43A7
:1041400002600068084001900198FFE7FFE7074818
:104150000268012109070A430260006808400090D4
:104160000098FFE702B07047181002401C10024090
:1041700080B582B0014601A80170002140560BF0C5
:1041800073F902B080BD80B584B0034603A8037004
:10419000029101920021405602990BF07BF904B084
:1041A00080BD10B582B00190019800680090019820
:1041B0002D2109010124445001995920C2000020F9
:1041C0008854009A5423D15A2143D152009AD15A8B
:1041D00002242143D15202B010BD82B00190684642
:1041E000017002B0704710B585B0049003A801803B
:1041F00002A90A8001930088000600280BD5FFE77A
:10420000049803A90A8807210A402821514340182D
:10421000103000900AE0049803A90A88282151432D
:1042200040181521090140180090FFE702A80088F6
:10423000002807D1FFE70099002008730198009932
:10424000C8800AE00099012008730198009908814C
:1042500001A8408800994881FFE7002005B010BD03
:1042600080B584B0019101460198039102A90870BC
:10427000039A5B20C0001058097828234B43D218BA
:10428000526A08F0C5FB04B080BD80B584B00191CE
:1042900001460198039102A90870039A5B20C000AF
:1042A0001058097828234B43D21859239B00D25821
:1042B00008F06CFC04B080BD80B584B0029001A809
:1042C00001700078000600280ED5FFE7029801A9CA
:1042D0000A7807210A4028215143401810300090E5
:1042E0000099012048700FE0029801A90A7807217F
:1042F0000A40282151434018152109014018009017
:10430000009900204870FFE701A8007807210840C5
:1043100000990870FFE7029829210901405C0128F3
:1043200004D1FFE703A90220087016E002992920B2
:10433000020101208854FFE7FFE702980068009916
:1043400009F0F0FDFFE702992920020100208854BE
:10435000FFE703A900200870FFE703A8007804B076
:1043600080BD80B584B0029001A8017000780F2153
:10437000084002990979884204D9FFE703A901207E
:1043800008704FE001A80078000600280ED5FFE76E
:10439000029801A90A7807210A40282151434018B0
:1043A000103000900099012048700FE0029801A998
:1043B0000A7807210A402821514340181521090194
:1043C00040180090009900204870FFE700990020F5
:1043D000887001A800780721084000990870FFE75D
:1043E000029829210901405C012804D1FFE703A9B3
:1043F0000220087016E00299292002010120885449
:10440000FFE7FFE702980068009909F055FFFFE712
:1044100002992920020100208854FFE703A9002007
:104420000870FFE703A8007804B080BD80B588B0AD
:104430000790069105A8028000884004002870D5E6
:10444000FFE7079800685021405A06990978C9008B
:1044500040180799096840187249405A6C49084049
:1044600004A90880069880690988884207D3FFE775
:1044700004A8028806998869801A886103E0069971
:1044800000208861FFE70698806900281BD1FFE7BC
:10449000FFE707980068069909788900405A5D4946
:1044A000084003A908800398012252035040088065
:1044B00003985949084307990968069A12789200A7
:1044C0008852FFE7FFE705A800884006002818D5B6
:1044D000FFE7FFE7FFE7079800680699097889007A
:1044E000405A4E49084002A9088002984C490843A6
:1044F00007990968069A127892008852FFE7FFE749
:10450000FFE704A8008800280AD0FFE707980068A2
:10451000069A5169128904AB1B880AF016FFFFE75F
:104520006FE0079800685021405A06990978C90041
:1045300040180799096840183449405A34490840DE
:1045400004A90880069880690988884207D3FFE794
:1045500004A8028806998869801A886103E0069990
:1045600000208861FFE70698806900281BD1FFE7DB
:10457000FFE707980068069909788900405A25499D
:10458000084001A908800198012252035040088088
:1045900001982149084307990968069A1278920000
:1045A0008852FFE7FFE705A800884006002818D4D6
:1045B000FFE7FFE7FFE70798006806990978890099
:1045C000405A164908406946088000981449084333
:1045D00007990968069A127892008852FFE7FFE768
:1045E000FFE704A8008800280AD0FFE707980068C2
:1045F000069A5169528904AB1B880AF0A6FEFFE7B0
:10460000FFE704A8008808B080BDC046060400008B
:10461000FF0300008FBF0000808000008F8F00002C
:10462000C08000000204000080B5A8B02790269149
:1046300025A8028000884006002800D4B8E1279809
:1046400000685021405A26990978C90040182799D6
:1046500009684018FE49405AFE49084023A90880CD
:10466000269880690988884207D9FFE723A802882D
:1046700026998869801A886103E02699002088615C
:10468000FFE726988069002800D0AFE0FFE7269872
:104690004078002822D1FFE7FFE7279800682290A2
:1046A000279800685021415A229840182290229958
:1046B00026980078C0004018E54940182190FFE78F
:1046C00021990888E34A104008802199088801222E
:1046D000D20310430880FFE7FFE71DE026984078EB
:1046E000012818D1FFE7FFE7279800681F90279857
:1046F00000685021415A1F9840181F901F99269812
:104700000078C0004018D24940181E901E99002021
:104710000880FFE7FFE7FFE7FFE7FFE7279800686C
:104720001D9026984078002822D1FFE7FFE72798C0
:1047300000681B90279800685021415A1B98401828
:104740001B901B9926980078C0004018C249401859
:104750001A90FFE71A990888BE4A104008801A99F3
:1047600008880122D20310430880FFE7FFE718E022
:1047700026984078012813D1FFE727980068502138
:10478000415A1D9840181D901D9926980078C00028
:104790004018B14940181C901C9900200880FFE780
:1047A000FFE7FFE7279826990978FFF759FD25A825
:1047B00000884004002818D5FFE7FFE7FFE72798A7
:1047C0000068269909788900405AA449084018A928
:1047D00008801898A249084327990968269A1278F0
:1047E00092008852FFE7FFE7FFE7E0E025A8008896
:1047F0004004002818D5FFE7FFE7FFE72798006887
:10480000269909788900405A9449084017A90880D8
:1048100017989349084327990968269A12789200B5
:104820008852FFE7FFE7FFE726982421405C012834
:1048300000D0BBE023A80388269A5169C9185161AA
:1048400002882699C8698018C8612699086A09698A
:10485000884209D3FFE7269800692490249A269974
:10486000086A801A086217E02698006A002808D1B2
:10487000FFE723A80088249026992422002088544A
:1048800009E026992422002088542699096A249157
:1048900026990862FFE7FFE7FFE72698407800289F
:1048A0005BD1FFE7FFE7279800681690279800681C
:1048B0005021415A1698401816901699269800785B
:1048C000C0004018624940181590FFE71599088804
:1048D000604A104008802498002807D1FFE7159906
:1048E00008880122D2031043088033E024983E2830
:1048F00016D8FFE7FFE724984008149024A8007812
:10490000C007002804D0FFE71498401C1490FFE76C
:10491000149882021599088810430880FFE718E070
:10492000FFE724984009149024A80078C0060028C6
:1049300004D1FFE71498401E1490FFE714988002FA
:1049400015990A8810430122D20310430880FFE71B
:10495000FFE7FFE7FFE7FFE71DE026984078012823
:1049600018D1FFE7FFE727980068139027980068A1
:104970005021415A139840181390139926980078A3
:10498000C0004018324940181290249812990880AB
:10499000FFE7FFE7FFE7FFE727980068269A5169DE
:1049A000128924AB1B880AF024FDFFE7FFE7C1E171
:1049B000279800685021405A26990978C900401864
:1049C000279909684018EB49405AEB49084023A948
:1049D0000880269880690988884207D3FFE723A8C2
:1049E000028826998869801A886103E02699002048
:1049F0008861FFE726988069002800D0BAE0FFE7C9
:104A00002698407800282DD1FFE7FFE72798006817
:104A10001190279800685021415A11984018119020
:104A2000119926980078C0004018D6494018109077
:104A3000FFE710990888D04A10400880109908882C
:104A40000122D20310430880FFE7FFE728E0C046B9
:104A500002040000FF030000060400008F8F000026
:104A600080C0000026984078012818D1FFE7FFE7B2
:104A7000279800680E90279800685021415A0E9898
:104A800040180E900E9926980078C0004018BD4935
:104A900040180D900D9900200880FFE7FFE7FFE721
:104AA000FFE7FFE7279800680C90269840780028D9
:104AB00022D1FFE7FFE7279800680A90279800684F
:104AC0005021415A0A9840180A900A99269800786D
:104AD000C0004018A74940180990FFE709990888C5
:104AE000A54A10400880099908880122D203104382
:104AF0000880FFE7FFE718E026984078012813D1E7
:104B0000FFE7279800685021415A0C9840180C90F4
:104B10000C9926980078C0004018964940180B90D0
:104B20000B9900200880FFE7FFE7FFE72798269909
:104B30000978FFF795FB25A800884004002818D4C1
:104B4000FFE7FFE7FFE727980068269909788900C3
:104B5000405A8A49084007A90880079888490843AD
:104B600027990968269A127892008852FFE7FFE792
:104B7000FFE7DEE025A800884004002818D4FFE7FE
:104B8000FFE7FFE727980068269909788900405ACF
:104B90007A49084006A90880069879490843279968
:104BA0000968269A127892008852FFE7FFE7FFE72C
:104BB00026982421405C012800D0B9E023A803886E
:104BC000269A5169C918516102882699C8698018C6
:104BD000C8612699086A0969884209D3FFE72698BF
:104BE00000692490249A2699086A801A086217E0BE
:104BF0002698006A002808D1FFE723A8008824909F
:104C0000269924220020885409E02698006A2490DE
:104C1000269900200862269924228854FFE7FFE79E
:104C2000FFE72798006805902698407800285BD118
:104C3000FFE7FFE727980068039027980068502156
:104C4000415A039840180390039926980078C000B1
:104C50004018484940180290FFE702990888464AE0
:104C6000104008802498002807D1FFE7029908889F
:104C70000122D2031043088033E024983E2816D83E
:104C8000FFE7FFE724984008019024A80078C007B8
:104C9000002804D0FFE70198401C0190FFE701982D
:104CA00082020299088810430880FFE718E0FFE7B6
:104CB00024984009019024A80078C006002804D157
:104CC000FFE70198401E0190FFE7019880020299DA
:104CD0000A8810430122D20310430880FFE7FFE750
:104CE000FFE7FFE7FFE718E026984078012813D197
:104CF000FFE7279800685021415A05984018059011
:104D0000059926980078C00040181A494018049068
:104D1000249804990880FFE7FFE7FFE727980068D9
:104D2000269A5169528924AB1B880AF062FBFFE77F
:104D3000FFE7FFE7FFE727980068269909788900D1
:104D4000405A114908406946088000981022504096
:104D50000880009820225040088000980B490843A2
:104D600027990968269A127892008852FFE7002056
:104D700028B080BD06040000FF0300008F8F0000F4
:104D800080C0000002040000BF8F0000808000008F
:104D900083B0009101460098029101A90870029821
:104DA0000A7807210A402821514340185B218900D5
:104DB000405803B0704710B588B0069005A8017040
:104DC00004A90A8003A90B7002AA002111700078BF
:104DD000000600280ED5FFE7069805A90A780721E6
:104DE0000A402821514340181030019001990120B8
:104DF00048700FE0069805A90A7807210A40282183
:104E000051434018152109014018019001990020D3
:104E10004870FFE705A8007807210840019908704D
:104E200004A800880199086103980199C87003A833
:104E30000078022804D1FFE7019900200871FFE7FC
:104E4000FFE7069829210901405C012804D1FFE70A
:104E500007A90220087016E0069929200201012006
:104E60008854FFE7FFE706980068019908F02AFDDB
:104E7000FFE706992920020100208854FFE70298E5
:104E800007A90870FFE707A8007808B010BD10B5A3
:104E900086B0059004A8017003920293059A0478E5
:104EA00007210C4028236343D21815231B01D21875
:104EB0000192039A019B5A61029A019B9A61019B9C
:104EC00000220092DA61019B5A7000780840019933
:104ED000087005980068019909F0CAFA009806B0B0
:104EE00010BD80B584B0029001A801700078072140
:104EF000084002990979884204D9FFE703A90120F3
:104F000008704DE001A80078000600280ED5FFE7E4
:104F1000029801A90A7807210A4028215143401824
:104F2000103000900099012048700DE0029801A90E
:104F30000A78282151434018152109014018009092
:104F4000009900204870FFE700990120887001A8AF
:104F500000780721084000990870FFE7029829218E
:104F60000901405C012804D1FFE703A90220087071
:104F700016E002992920020101208854FFE7FFE78B
:104F800002980068009909F031FAFFE70299292098
:104F9000020100208854FFE703A900200870FFE702
:104FA00003A8007804B080BD10B586B0059004A8B1
:104FB000017003920293059A047807210C4028237C
:104FC0006343D21810320192039A019B5A61029AEC
:104FD000019B9A61019B242401221A55029B019C8A
:104FE0002362019C00230093E361019B5A700078C7
:104FF00008400199087005980068019909F038FA8D
:10500000009806B010BD000010B582B00190019864
:1050100000680AF091F90090684640780006002880
:1050200004D5FFE7019804F0DBFBD5E06846407843
:10503000400700280FD5FFE7019801684422885AED
:105040006C4B18408852019800F0B8F90198002183
:1050500000F0F5F9C0E0684640784006002808D521
:10506000FFE7019801684422885A614B1840885232
:10507000B2E0684640788006002808D5FFE701982E
:1050800001684422885A594B18408852A4E0684667
:105090004078C006002828D5FFE701980168402223
:1050A000885A04239843885201980168885A082333
:1050B0009843885201985921C900405C012809D1C0
:1050C000FFE701985921CA00002181540198FFF798
:1050D00084F8FFE7019800F08FF9019801684422F5
:1050E000885A414B1840885276E06846407800075D
:1050F000002818D5FFE7019801684022885A082344
:1051000018438852019801684423C85A354C2040FE
:10511000C85201980168885A04231843885201989C
:1051200000F0F8F958E0684600780006002834D509
:10513000FFE7019801684422885A802398438852E7
:1051400001985921C900405C002821D1FFE701984E
:1051500001684022885A0423184388520198016844
:10516000885A08231843885201985921CA000121FE
:105170008154019800685422805AF022104080081F
:10518000019AB3239B00D0500198FFF726F803E063
:10519000019800F0BFF9FFE71EE0684640788007FD
:1051A00000280BD5FFE7019801684422885A0C4B70
:1051B00018408852019800F037F90DE068464078B1
:1051C000C007002808D0FFE7019801684422885AE8
:1051D000024B18408852FFE702B010BDFFFE0000EE
:1051E000FFFD0000FFF70000FFEF0000FFDF000001
:1051F000FFBF0000FFFB000070B584B00290029872
:10520000002804D1FFE703A901200870ABE0029851
:105210005749405C002809D1FFE702992920020183
:1052200000208854029800F0A5F8FFE70299504A40
:10523000032088540298006809F02EF801A9002084
:105240000870FFE701A800780299097988422DDAF1
:10525000FFE7029801AB1C782822114661434118F0
:1052600001204874187802991446444309190874B7
:1052700002981C781146614341180020C8740299B5
:105280001D7814466C430919086202991D7814466A
:105290006C430919486202991B785A43891888623D
:1052A000FFE70198401C01A90870CBE701A9002085
:1052B0000870FFE701A8007802990979884238DA76
:1052C000FFE7029801AB1C78282211466143411880
:1052D000FF2425465235002048551978029D164670
:1052E0004E43AD1915263601A95502991E7815466B
:1052F000754349195434085502991D7814466C4376
:1053000009190B246401085102991D7814466C4355
:1053100009195924A400085102991B785A43891885
:105320002D22D2008850FFE70198401C01A9087087
:10533000C0E7029908688A68496808F08BFF0299FB
:105340000020087302990A4A012088540298807A42
:10535000012804D1FFE70298FEF723FFFFE703A926
:1053600000200870FFE703A8007804B070BDC046B5
:105370009102000080B584B00390039800680E4944
:10538000884216D1FFE7FFE7EC4802680121C90512
:105390000A4302600068084002900298FFE71F205D
:1053A000019000221146FEF7EEFE0198FEF7E0FEA6
:1053B000FFE704B080BDC046005C004080B584B00B
:1053C000039002A90120087003984079022803D0B5
:1053D000FFE7FCF7F3FFFFE703985B21C9000191AA
:1053E000405802A9097807F0B6FD01990398405882
:1053F00007F03DFD04B080BD80B582B001900198FA
:10540000407A002808D0FFE74D49086806229043FB
:10541000086006F099F8FFE701985B21C900405841
:1054200007F068FD02B080BD80B582B001900198A0
:105430005B21C900405807F071FD02B080BD80B506
:1054400084B0029001A80170FFE7029829210901A8
:10545000405C012804D1FFE703A9022008701AE08C
:1054600002992920020101208854FFE7FFE70198F3
:10547000029908730298006801A9097809F0A9FF48
:10548000FFE702992920020100208854FFE703A9C1
:1054900000200870FFE703A8007804B080BD80B545
:1054A00082B0019001995B20C00008585322D200BD
:1054B000891807F07DFD02B080BD80B582B00090F4
:1054C000FFE7009829210901405C012804D1FFE78A
:1054D00001A90220087019E0009929200201012089
:1054E0008854FFE7FFE70098006809F00DFF009877
:1054F000006808F0A3FEFFE70099292002010020C0
:105500008854FFE701A900200870FFE701A8007890
:1055100002B080BD80B582B0019001985B21C900C6
:10552000405807F0CFFD0198407A002806D0FFE7E9
:1055300003490868062210430860FFE702B080BDF7
:1055400010ED00E07E490868012212021043086055
:105550007047C04680B586B004900020039002904A
:1055600004988078C007002800D193E001A90020AA
:10557000087072480068C000002810D4FFE7FFE7F9
:105580006E480268012109070A430260006808406A
:1055900000900098FFE701A901200870FFE7684824
:1055A0000068C00500281DD4FFE76549086801228E
:1055B000120210430860FDF73DFE0390FFE76048CC
:1055C0000068C00500280CD4FFE7FDF733FE0399FF
:1055D000401A652804D3FFE705A903200870A9E055
:1055E000EDE7FFE7574800680321090208400290F1
:1055F0000298002838D0FFE70298049949680322EE
:105600001202114088422FD0FFE74E49086803225A
:1056100012029043029008680122120410430860AD
:105620000868904308600298086002A80078C007E4
:10563000002818D0FFE7FDF7FDFD0390FFE7414884
:105640000068800700280DD4FFE7FDF7F3FD0399FC
:10565000401AB849884204D3FFE705A9032008701F
:1056600068E0ECE7FFE7FFE736490868032212022B
:105670009043049A52681043086001A800780128FA
:1056800007D1FFE72D4908680122120790430860FF
:10569000FFE7FFE704980078C007002809D0FFE77C
:1056A0002949086803229043049A926810430860CD
:1056B000FFE704980078800700280AD5FFE7224911
:1056C0000868032212049043049AD26810430860C9
:1056D000FFE7049800788006002809D5FFE71A49FB
:1056E000086810229043049A126910430860FFE78B
:1056F000049880788007002809D5FFE712490868D8
:1057000080229043049A926910430860FFE704984E
:1057100040784007002809D5FFE70B490868402278
:105720009043049A526910430860FFE705A90020DE
:105730000870FFE705A8007806B080BD1C10024085
:1057400000700040201002403010024080B584B04C
:10575000029001910298002804D1FFE703A90120DB
:105760000870D8E001986E4909680122114088420A
:1057700012D9FFE76A48026801218A43019B1A4354
:105780000260006808400199884204D0FFE703A93D
:1057900001200870BFE0FFE702980078800700282A
:1057A00016D5FFE7029800784007002807D5FFE7E5
:1057B000A14908680722120210430860FFE79E49CA
:1057C0000868F0229043029A926810430860FFE74D
:1057D00002980078C007002861D0FFE7029840686F
:1057E00001280BD1FFE74F4800688003002804D44C
:1057F000FFE703A9012008708DE02CE002984068C3
:1058000002280BD1FFE7474800688001002804D434
:10581000FFE703A9012008707DE01BE002984068C3
:1058200003280BD1FFE7404800688003002804D418
:10583000FFE703A9012008706DE00AE0394800681D
:105840008007002804D4FFE703A90120087062E064
:10585000FFE7FFE7FFE77849086803229043029AD1
:10586000526810430860FDF7E5FC0090FFE77248BE
:1058700000680C21084002994968890088420DD0CF
:10588000FFE7FDF7D7FC0099401A2A49884204D364
:10589000FFE703A9032008703DE0E8E7FFE7019870
:1058A0001F49096801221140884212D2FFE71C48B3
:1058B000026801218A43019B1A4302600068084084
:1058C0000199884204D0FFE703A90120087022E073
:1058D000FFE702980078400700280AD5FFE75649FD
:1058E0000868072212029043029AD26810430860A7
:1058F000FFE700F021F850490968C9B20A090B49CD
:10590000895CC8400A4908600120FEF7DBFB03A957
:1059100000200870FFE703A8007804B080BDC046EF
:10592000002002400010024034100240CC42010826
:10593000780000208913000080B586B00020059013
:1059400004900390029001903B48006805900598F0
:105950000C21084000900C2868D80098810001A014
:10596000405887462B5A00082D5A00082D5A000827
:105970002D5A0008995900082D5A00082D5A000880
:105980002D5A00089F5900082D5A00082D5A00086A
:105990002D5A0008255A00082C48019049E0059925
:1059A0000F20820411408A0C2549895C0291254907
:1059B000096801402448405C049005980321C9030C
:1059C00008400121090488420BD1FFE7049A1F48CF
:1059D00000231946FAF78CFB029AFAF7B9FB0390F9
:1059E0001DE005980321C903084088420BD1FFE759
:1059F000049A124800231946FAF77AFB029AFAF73A
:105A0000A7FB03900AE0049A104800231946FAF70E
:105A10006FFB029AFAF79CFB0390FFE7FFE70398FE
:105A2000019006E00548019003E0FFE70748019078
:105A3000FFE7019806B080BD04100240006CDC0254
:105A4000646701082C1002407467010800127A0094
:105A500080B588B006900698002804D1FFE707A912
:105A600001200870B1E306980078C007002800D133
:105A700097E0FE4800680C210840042811D0FFE799
:105A8000FA4800680C21084008281AD1FFE7F748B7
:105A900000680321C903084001210904884210D18C
:105AA000FFE7F34800688003002809D5FFE7069860
:105AB0004068002804D1FFE707A90120087084E3AB
:105AC0006EE0FFE706984068012807D1FFE7E84944
:105AD000086801221204104308602CE00698406810
